:020000040800F2
:1000000000020020D9000008F10300088503000861
:1000100000000000000000000000000000000000E0
:10002000000000000000000000000000350400088F
:100030000000000000000000F30300087505000840
:10004000EB00000800000000EB000008EB000008D7
:10005000EB000008EB000008EB000008EB000008D4
:10006000EB000008EB000008EB000008EB000008C4
:10007000EB000008EB000008EB000008EB000008B4
:1000800000000000EB00000800000000000000007D
:1000900000000000EB000008EB000008EB00000887
:1000A00000000000EB00000800000000EB0000086A
:1000B0000000000000000000000000000000000040
:1000C0000448854600F016F800480047F705000888
:1000D000C046C0460002002004488047044800474C
:1000E000FEE7FEE7FEE7FEE7FEE7FEE7790500082C
:1000F000C1000008064C0125064E05E0E36807CC68
:100100002B430C3C98471034B442F7D3FFF7DCFF85
:10011000340600084406000800B5030000F04EFA5B
:100120000C0715393A3B3C3D494A083E4B4C44E0EC
:10013000002909D1224A526860239A43204B5A6011
:100140001A4652680A435A6037E0002901D0022952
:100150001ED11C4A1A4B9A601A4652685208520025
:100160005A60184A9A601A4652685A60002908D1A3
:10017000144A9A601A46D26801231A43104BDA6077
:1001800006E0104A0E4B9A601A46D2680022DA60E6
:1001900013E012E011E010E00FE00EE0084A5268B0
:1001A00006239A43064B5A601A4652680A435A601D
:1001B00003E002E001E000E000BF00BF00BD00007E
:1001C000007C0140E15A0000F0B500220023002429
:1001D00000BF3DE0012595402B460D681D402C4693
:1001E0009C4234D10D79012D02D00D79022D16D10A
:1001F000856857000326BE40B54385604D7956009B
:10020000B540866835438560456801269640B5430C
:10021000456045688E799640B6B2354345600568BD
:1002200057000326BE40B54305600D795600B54022
:10023000066835430560C56857000326BE40B543D0
:10024000C560CD795600B540C6683543C560521CBF
:10025000102ABFD30D7A002D04D1056B0E683543EB
:10026000056303E0056B0E68B5430563F0BD000050
:100270000EB50121C80400F0BDF8012168460171E6
:1002800000218171802000906846C1710121417177
:1002900069460248FFF798FF0EBD000000080048BD
:1002A0003548406910214840334948610846406953
:1002B00020214840304948610846406908214840AB
:1002C0002D49486108464069402148402A49486113
:1002D00008464069802148402749486127484069CD
:1002E00002214840254948610846406904214840A8
:1002F0002249486108464069082148401F49486131
:1003000008464069102148401C4948610846406938
:100310002021484019494861084640694021484029
:1003200016494861084640698021484013494861A0
:1003300013484069202148401149486108464069F6
:10034000102148400E4948610920C0064069022139
:1003500048400921C90648610846406904214840CF
:100360000921C90648610846406908214840092119
:10037000C90648617047000000080048000C0048AA
:100380000004004800BFFEE70EB50121880700F019
:1003900041F80121480400F02DF80121880400F003
:1003A00029F80121080500F025F8012168460171AE
:1003B00000218171202000906846C17101214171A6
:1003C00000210920FFF7A8FE69460748FFF7FCFE59
:1003D0002020009000210A20FFF79EFE6946034876
:1003E000FFF7F2FE0EBD0000000C004800040048BC
:1003F00070477047002905D0054A52690243044BF3
:100400005A6104E0024A52698243014B5A617047C3
:1004100000100240002905D0054AD2690243044B6E
:10042000DA6104E0024AD2698243014BDA61704723
:100430000010024070470000F8B500250026002794
:100440000020009000240E48056A280C0090ACB2F1
:100450000098204000280FD10A4807680A48074042
:10046000E006000E6105890E0902084306460548AC
:10047000006830430349086000F008F8F8BD000048
:1004800000F8FF1F001002400700FFFF85B00020AA
:10049000049003900290019000903348006801217D
:1004A0000843314908603048C030806A0F21C902D2
:1004B00088432D49C03188620846806A0B21C902F1
:1004C00008432949C031886200BF274800680221DB
:1004D000084003900498401C04900398002803D11E
:1004E000224904988842F0D11F4800680221084040
:1004F000002802D00120039001E00020039003981F
:1005000001282FD11A48006802900298C008C00044
:100510000290022102980843154908601248406879
:100520000190F0210198884301900F49019848609B
:10053000084640680090072109020098884300900F
:100540000949009848600846406880088000486073
:1005500008464068486000BF034840680C210840D6
:100560000028F9D105B0704700100240FFFF0000DD
:10057000002002407047000010B50D4800680121BE
:1005800008430B490860084640680A490840084982
:1005900048600846006B1321884305490863002022
:1005A0008860FFF749FF00200349486310BD000041
:1005B000001002401CB8FFF84020024030B47446DE
:1005C000641E2578641CAB4204D3635D5B00E318B2
:1005D00030BC18471D46F8E702E008C8121F08C1E2
:1005E000002AFAD170477047002001E001C1121FB4
:1005F000002AFBD1704700F00AF8FFF739FEFFF739
:10060000C3FE03E0FFF74CFE00F001F8FAE700201C
:100610000AE0002102E000BF4A1C91B27D22D20014
:100620009142F8DB421C90B2FF22F5329042F0DB9F
:10063000704700004406000800000020000200008F
:04064000E8050008C1
:04000005080000C12E
:00000001FF
